{
  "contractName": "DirectFund",
  "abi": [
    {
      "inputs": [],
      "payable": false,
      "stateMutability": "nonpayable",
      "type": "constructor"
    },
    {
      "anonymous": false,
      "inputs": [],
      "name": "BuyPhaseStarted",
      "type": "event"
    },
    {
      "anonymous": false,
      "inputs": [],
      "name": "ProposalPhaseStarted",
      "type": "event"
    },
    {
      "anonymous": false,
      "inputs": [
        {
          "indexed": false,
          "internalType": "address",
          "name": "finalBuyer",
          "type": "address"
        },
        {
          "indexed": false,
          "internalType": "uint256",
          "name": "finalCost",
          "type": "uint256"
        }
      ],
      "name": "SaleEnded",
      "type": "event"
    },
    {
      "anonymous": false,
      "inputs": [],
      "name": "SaleInit",
      "type": "event"
    },
    {
      "anonymous": false,
      "inputs": [],
      "name": "ZeroBalance",
      "type": "event"
    },
    {
      "constant": true,
      "inputs": [],
      "name": "recipient",
      "outputs": [
        {
          "internalType": "address payable",
          "name": "",
          "type": "address"
        }
      ],
      "payable": false,
      "stateMutability": "view",
      "type": "function"
    },
    {
      "constant": true,
      "inputs": [],
      "name": "saleDetails",
      "outputs": [
        {
          "internalType": "address",
          "name": "buyer",
          "type": "address"
        },
        {
          "internalType": "uint256",
          "name": "boughtPrice",
          "type": "uint256"
        }
      ],
      "payable": false,
      "stateMutability": "view",
      "type": "function"
    },
    {
      "constant": true,
      "inputs": [],
      "name": "state",
      "outputs": [
        {
          "internalType": "enum DirectFund.Phase",
          "name": "",
          "type": "uint8"
        }
      ],
      "payable": false,
      "stateMutability": "view",
      "type": "function"
    },
    {
      "constant": false,
      "inputs": [],
      "name": "donate",
      "outputs": [],
      "payable": true,
      "stateMutability": "payable",
      "type": "function"
    },
    {
      "constant": false,
      "inputs": [],
      "name": "nextPhase",
      "outputs": [],
      "payable": false,
      "stateMutability": "nonpayable",
      "type": "function"
    },
    {
      "constant": false,
      "inputs": [
        {
          "internalType": "bytes32",
          "name": "encodedAmount",
          "type": "bytes32"
        }
      ],
      "name": "propose",
      "outputs": [],
      "payable": true,
      "stateMutability": "payable",
      "type": "function"
    },
    {
      "constant": false,
      "inputs": [
        {
          "internalType": "uint256",
          "name": "proposedRate",
          "type": "uint256"
        },
        {
          "internalType": "bytes32",
          "name": "secret",
          "type": "bytes32"
        }
      ],
      "name": "buy",
      "outputs": [],
      "payable": false,
      "stateMutability": "nonpayable",
      "type": "function"
    },
    {
      "constant": false,
      "inputs": [],
      "name": "getReturns",
      "outputs": [],
      "payable": false,
      "stateMutability": "nonpayable",
      "type": "function"
    },
    {
      "constant": false,
      "inputs": [],
      "name": "finishSale",
      "outputs": [],
      "payable": false,
      "stateMutability": "nonpayable",
      "type": "function"
    }
  ],
  "bytecode": "0x608060405260006002556000600360006101000a81548160ff0219169083600381111561002857fe5b021790555034801561003957600080fd5b50336000806101000a81548173ffffffffffffffffffffffffffffffffffffffff021916908373ffffffffffffffffffffffffffffffffffffffff1602179055507f3449aab2f06a77c1d6760f0f943ccb7db05bd3f47be24b9c142ed77fb1ed561060405160405180910390a16111af806100b56000396000f3fe6080604052600436106100865760003560e01c806399882cdb1161005957806399882cdb1461016e578063ade58ccb1461019c578063c19d93fb146101b3578063e9fca283146101ec578063ed88c68e1461023157610086565b80633474a4a61461008b5780633eadb6db146100e957806366d003ac146101005780638f86f5ea14610157575b600080fd5b34801561009757600080fd5b506100a061023b565b604051808373ffffffffffffffffffffffffffffffffffffffff1673ffffffffffffffffffffffffffffffffffffffff1681526020018281526020019250505060405180910390f35b3480156100f557600080fd5b506100fe61026d565b005b34801561010c57600080fd5b506101156104c7565b604051808273ffffffffffffffffffffffffffffffffffffffff1673ffffffffffffffffffffffffffffffffffffffff16815260200191505060405180910390f35b34801561016357600080fd5b5061016c6104ec565b005b61019a6004803603602081101561018457600080fd5b81019080803590602001909291905050506107e7565b005b3480156101a857600080fd5b506101b16109f1565b005b3480156101bf57600080fd5b506101c8610c41565b604051808260038111156101d857fe5b60ff16815260200191505060405180910390f35b3480156101f857600080fd5b5061022f6004803603604081101561020f57600080fd5b810190808035906020019092919080359060200190929190505050610c54565b005b610239610e7d565b005b60048060000160009054906101000a900473ffffffffffffffffffffffffffffffffffffffff16908060010154905082565b6000809054906101000a900473ffffffffffffffffffffffffffffffffffffffff1673ffffffffffffffffffffffffffffffffffffffff163373ffffffffffffffffffffffffffffffffffffffff1614610312576040517f08c379a000000000000000000000000000000000000000000000000000000000815260040180806020018281038252602a815260200180611151602a913960400191505060405180910390fd5b60038081111561031e57fe5b600360009054906101000a900460ff16600381111561033957fe5b1415610368576000600360006101000a81548160ff0219169083600381111561035e57fe5b02179055506103b4565b6001600360009054906101000a900460ff16600381111561038557fe5b01600381111561039157fe5b600360006101000a81548160ff021916908360038111156103ae57fe5b02179055505b600060038111156103c157fe5b600360009054906101000a900460ff1660038111156103dc57fe5b141561040f577f3449aab2f06a77c1d6760f0f943ccb7db05bd3f47be24b9c142ed77fb1ed561060405160405180910390a15b6001600381111561041c57fe5b600360009054906101000a900460ff16600381111561043757fe5b141561046a577fe02916371debfb4cc80ff3f510aca0c2d89cd176ddc084dc5692b301f711dd2e60405160405180910390a15b6002600381111561047757fe5b600360009054906101000a900460ff16600381111561049257fe5b14156104c5577fa232390656fdebdb602698c8f12256d5e0135781f5e1c1c60cfeeaa447c3d90460405160405180910390a15b565b6000809054906101000a900473ffffffffffffffffffffffffffffffffffffffff1681565b60038060009054906101000a900460ff16600381111561050857fe5b81600381111561051457fe5b14610587576040517f08c379a000000000000000000000000000000000000000000000000000000000815260040180806020018281038252601c8152602001807f496e76616c696420706861736520666f722074686520616374696f6e0000000081525060200191505060405180910390fd5b6000809054906101000a900473ffffffffffffffffffffffffffffffffffffffff1673ffffffffffffffffffffffffffffffffffffffff163373ffffffffffffffffffffffffffffffffffffffff161461062c576040517f08c379a000000000000000000000000000000000000000000000000000000000815260040180806020018281038252602a815260200180611151602a913960400191505060405180910390fd5b6000809054906101000a900473ffffffffffffffffffffffffffffffffffffffff1673ffffffffffffffffffffffffffffffffffffffff166108fc6002549081150290604051600060405180830381858888f19350505050158015610695573d6000803e3d6000fd5b50670de0b6b3a7640000600254816106a957fe5b046002819055506040518060400160405280600160009054906101000a900473ffffffffffffffffffffffffffffffffffffffff1673ffffffffffffffffffffffffffffffffffffffff168152602001600254815250600460008201518160000160006101000a81548173ffffffffffffffffffffffffffffffffffffffff021916908373ffffffffffffffffffffffffffffffffffffffff160217905550602082015181600101559050507f349f939aaa1895cee67485b264474f0d2a1aac01083917b8ea9f96e4036cbb27600160009054906101000a900473ffffffffffffffffffffffffffffffffffffffff16600254604051808373ffffffffffffffffffffffffffffffffffffffff1673ffffffffffffffffffffffffffffffffffffffff1681526020018281526020019250505060405180910390a150565b6001600360009054906101000a900460ff16600381111561080457fe5b81600381111561081057fe5b14610883576040517f08c379a000000000000000000000000000000000000000000000000000000000815260040180806020018281038252601c8152602001807f496e76616c696420706861736520666f722074686520616374696f6e0000000081525060200191505060405180910390fd5b6000809054906101000a900473ffffffffffffffffffffffffffffffffffffffff1673ffffffffffffffffffffffffffffffffffffffff163373ffffffffffffffffffffffffffffffffffffffff161415610929576040517f08c379a00000000000000000000000000000000000000000000000000000000081526004018080602001828103825260248152602001806110fa6024913960400191505060405180910390fd5b60003411610982576040517f08c379a000000000000000000000000000000000000000000000000000000000815260040180806020018281038252603381526020018061111e6033913960400191505060405180910390fd5b604051806040016040528083815260200134815250600660003373ffffffffffffffffffffffffffffffffffffffff1673ffffffffffffffffffffffffffffffffffffffff16815260200190815260200160002060008201518160000155602082015181600101559050505050565b60038060009054906101000a900460ff166003811115610a0d57fe5b816003811115610a1957fe5b14610a8c576040517f08c379a000000000000000000000000000000000000000000000000000000000815260040180806020018281038252601c8152602001807f496e76616c696420706861736520666f722074686520616374696f6e0000000081525060200191505060405180910390fd5b6000809054906101000a900473ffffffffffffffffffffffffffffffffffffffff1673ffffffffffffffffffffffffffffffffffffffff163373ffffffffffffffffffffffffffffffffffffffff161415610b32576040517f08c379a00000000000000000000000000000000000000000000000000000000081526004018080602001828103825260248152602001806110fa6024913960400191505060405180910390fd5b6000600760003373ffffffffffffffffffffffffffffffffffffffff1673ffffffffffffffffffffffffffffffffffffffff1681526020019081526020016000205490506000811115610c10576000600760003373ffffffffffffffffffffffffffffffffffffffff1673ffffffffffffffffffffffffffffffffffffffff168152602001908152602001600020819055503373ffffffffffffffffffffffffffffffffffffffff166108fc829081150290604051600060405180830381858888f19350505050158015610c0a573d6000803e3d6000fd5b50610c3d565b7f669567ea45849e2be6dd4df6e83e9e07b5ea429935d0a5a24f25812fa72480b460405160405180910390a15b5050565b600360009054906101000a900460ff1681565b6002600360009054906101000a900460ff166003811115610c7157fe5b816003811115610c7d57fe5b14610cf0576040517f08c379a000000000000000000000000000000000000000000000000000000000815260040180806020018281038252601c8152602001807f496e76616c696420706861736520666f722074686520616374696f6e0000000081525060200191505060405180910390fd5b6000809054906101000a900473ffffffffffffffffffffffffffffffffffffffff1673ffffffffffffffffffffffffffffffffffffffff163373ffffffffffffffffffffffffffffffffffffffff161415610d96576040517f08c379a00000000000000000000000000000000000000000000000000000000081526004018080602001828103825260248152602001806110fa6024913960400191505060405180910390fd5b60008090506000600660003373ffffffffffffffffffffffffffffffffffffffff1673ffffffffffffffffffffffffffffffffffffffff1681526020019081526020016000209050610de88585610f8d565b81600001541415610e2f57670de0b6b3a76400008502945080600101548201915084816001015410158015610e235750610e223386610fcb565b5b15610e2e5784820391505b5b3373ffffffffffffffffffffffffffffffffffffffff166108fc839081150290604051600060405180830381858888f19350505050158015610e75573d6000803e3d6000fd5b505050505050565b6000809054906101000a900473ffffffffffffffffffffffffffffffffffffffff1673ffffffffffffffffffffffffffffffffffffffff163373ffffffffffffffffffffffffffffffffffffffff161415610f23576040517f08c379a00000000000000000000000000000000000000000000000000000000081526004018080602001828103825260248152602001806110fa6024913960400191505060405180910390fd5b6000809054906101000a900473ffffffffffffffffffffffffffffffffffffffff1673ffffffffffffffffffffffffffffffffffffffff166108fc349081150290604051600060405180830381858888f19350505050158015610f8a573d6000803e3d6000fd5b50565b600080838360405160200180838152602001828152602001925050506040516020818303038152906040528051906020012090508091505092915050565b60006002548211610fdf57600090506110f3565b8273ffffffffffffffffffffffffffffffffffffffff16600160009054906101000a900473ffffffffffffffffffffffffffffffffffffffff1673ffffffffffffffffffffffffffffffffffffffff16146110a65760025460076000600160009054906101000a900473ffffffffffffffffffffffffffffffffffffffff1673ffffffffffffffffffffffffffffffffffffffff1673ffffffffffffffffffffffffffffffffffffffff168152602001908152602001600020600082825401925050819055505b8160028190555082600160006101000a81548173ffffffffffffffffffffffffffffffffffffffff021916908373ffffffffffffffffffffffffffffffffffffffff160217905550600190505b9291505056fe4f6e6c7920627579657273206d75737420706572666f726d207468697320616374696f6e4465706f73697420616d6f756e74206d7573742062652067726561746572207468616e2070726f706f73616c20616d6f756e744f6e6c792074686520726563697069656e742063616e20706572666f726d207468697320616374696f6ea265627a7a72315820ea258dbb7fa676b2470e420b87caff38b3dfa62f1c427512fff519964e22966964736f6c63430005100032",
  "source": "pragma solidity >=0.4.22 <=0.6.0;\n\ncontract DirectFund {\n    \n    struct Propose {\n        bytes32 proposal;\n        uint amount;\n    }\n    \n    struct buyerDetails {\n        address buyer;\n        uint boughtPrice;\n    }\n    \n    enum Phase {Init, Proposal, Sale, Done}\n\n    address payable public recipient;\n    address finalCustomer;\n    \n    uint finalSellingPrice = 0;\n    Phase public state = Phase.Init;\n    buyerDetails public saleDetails;\n    \n    mapping(address => Propose) allProposals;\n    mapping(address => uint) returnAmount;\n\n\n    // Events\n    event SaleEnded(address finalBuyer, uint finalCost);\n    event ProposalPhaseStarted();\n    event BuyPhaseStarted();\n    event SaleInit();\n    event ZeroBalance();\n    \n    // modifier to check if recipient\n    modifier onlyRecipient(){\n        require (msg.sender == recipient, \"Only the recipient can perform this action\");\n        _;\n    }\n    \n    // modifier to check if phase is valid\n    modifier checkPhase(Phase ph){\n        require (ph == state, \"Invalid phase for the action\");\n        _;\n    }\n    \n    // modifier to check if the user is not the recipient\n    modifier notRecipient(){\n        require (msg.sender != recipient, \"Only buyers must perform this action\");\n        _;\n    }\n    \n    constructor() public {\n        recipient = msg.sender;\n        emit SaleInit();\n    }\n    \n    // function to make a donation\n    function donate() public payable notRecipient{\n        // donationAmt = donationAmt*1000000000000000000; // making all transactions in ether\n        // uint donationBalance = 0;\n        recipient.transfer(msg.value);\n        // donationBalance = msg.value - donationAmt;\n        // msg.sender.transfer(donationBalance);\n    }\n    \n    // function to change the phase\n    function nextPhase() public onlyRecipient{\n        if (state == Phase.Done){\n            state = Phase.Init;\n        }else{\n            state = Phase(uint(state)+1);\n        }\n        \n        if (state == Phase.Init) emit SaleInit();\n        if (state == Phase.Proposal) emit ProposalPhaseStarted();\n        if (state == Phase.Sale) emit BuyPhaseStarted();\n    }\n    \n    // function to send proposal to the recipient (who is the seller here)\n    function propose(bytes32 encodedAmount) public payable checkPhase(Phase.Proposal) notRecipient{\n        require(msg.value > 0,\"Deposit amount must be greater than proposal amount\");\n        allProposals[msg.sender] = Propose({\n            proposal: encodedAmount,\n            amount: msg.value\n        });\n    }\n    \n    // funtion to finalise the sale.\n    function buy(uint proposedRate, bytes32 secret) public checkPhase(Phase.Sale) notRecipient{\n        uint saleBalance = 0;\n        Propose storage checkProp = allProposals[msg.sender];\n        // check if the proposal is right one\n        if (checkProp.proposal == computeKeccak(proposedRate,secret)){\n            proposedRate = proposedRate*1000000000000000000; // making all transactions in ether\n            saleBalance += checkProp.amount;  // has the proposed value as well as msg.value \n            if ((checkProp.amount >= proposedRate) && (checkMaxSale(msg.sender, proposedRate)))\n                saleBalance -= proposedRate;\n        }\n        msg.sender.transfer(saleBalance);\n    }\n    \n    // encoding the proposed value\n    function computeKeccak(uint propValue, bytes32 secret) internal returns(bytes32) {\n        bytes32 x = keccak256(abi.encodePacked(propValue,secret));\n        return x;\n    }\n    \n    // to check for the highest rate proposed\n    function checkMaxSale(address buyer, uint propValue) internal returns (bool status) {\n        if (propValue <= finalSellingPrice) return false;\n        if (finalCustomer != buyer) returnAmount[finalCustomer] += finalSellingPrice;\n        finalSellingPrice = propValue;\n        finalCustomer = buyer;\n        return true;\n    }\n    \n    // return the amount to the buyers who didn't get the item\n    function getReturns() public checkPhase(Phase.Done) notRecipient{\n        uint saleReturns = returnAmount[msg.sender];\n        if (saleReturns > 0){\n            returnAmount[msg.sender] = 0;\n            msg.sender.transfer(saleReturns);\n        }else{\n            emit ZeroBalance();\n        }\n    }\n    \n    // end the sale and transfer balance to the recipient\n    function finishSale() public checkPhase(Phase.Done) onlyRecipient{\n        recipient.transfer(finalSellingPrice);\n        finalSellingPrice = finalSellingPrice/1000000000000000000;\n        saleDetails = buyerDetails({\n            buyer:finalCustomer,\n            boughtPrice:finalSellingPrice\n        });\n        emit SaleEnded(finalCustomer,finalSellingPrice);\n    }\n    \n}\n\n/* Please use these for dry run or generate your own values\n\nPassword\n0x4265260000000000000000000000000000000000000000000000000000000000\n\nbid 1:\n20\n0xf33027072471274d489ff841d4ea9e7e959a95c4d57d5f4f9c8541d474cb817a\n\nbid 2:\n30\n0xfaa88b88830698a2f37dd0fa4acbc258e126bc785f1407ba9824f408a905d784\n\nDeposit:\n50\n\n\n*/",
  "sourcePath": "/Users/sufiyankhan/Documents/Repos/DirectFund/directFund-contract/contracts/DirectFund.sol",
  "compiler": {
    "name": "solc",
    "version": "0.5.16+commit.9c3226ce.Emscripten.clang"
  },
  "schemaVersion": "3.2.5",
  "updatedAt": "2020-11-22T01:50:33.193Z",
  "networkType": "ethereum",
  "devdoc": {
    "methods": {}
  },
  "userdoc": {
    "methods": {}
  }
}