{
  "contractName": "DirectFund",
  "abi": [
    {
      "inputs": [],
      "payable": false,
      "stateMutability": "nonpayable",
      "type": "constructor"
    },
    {
      "anonymous": false,
      "inputs": [],
      "name": "BuyPhaseStarted",
      "type": "event"
    },
    {
      "anonymous": false,
      "inputs": [],
      "name": "ProposalPhaseStarted",
      "type": "event"
    },
    {
      "anonymous": false,
      "inputs": [
        {
          "indexed": false,
          "internalType": "address",
          "name": "finalBuyer",
          "type": "address"
        },
        {
          "indexed": false,
          "internalType": "uint256",
          "name": "finalCost",
          "type": "uint256"
        }
      ],
      "name": "SaleEnded",
      "type": "event"
    },
    {
      "anonymous": false,
      "inputs": [],
      "name": "SaleInit",
      "type": "event"
    },
    {
      "anonymous": false,
      "inputs": [],
      "name": "ZeroBalance",
      "type": "event"
    },
    {
      "constant": true,
      "inputs": [],
      "name": "recipient",
      "outputs": [
        {
          "internalType": "address payable",
          "name": "",
          "type": "address"
        }
      ],
      "payable": false,
      "stateMutability": "view",
      "type": "function"
    },
    {
      "constant": true,
      "inputs": [],
      "name": "saleDetails",
      "outputs": [
        {
          "internalType": "address",
          "name": "buyer",
          "type": "address"
        },
        {
          "internalType": "uint256",
          "name": "boughtPrice",
          "type": "uint256"
        }
      ],
      "payable": false,
      "stateMutability": "view",
      "type": "function"
    },
    {
      "constant": true,
      "inputs": [],
      "name": "state",
      "outputs": [
        {
          "internalType": "enum DirectFund.Phase",
          "name": "",
          "type": "uint8"
        }
      ],
      "payable": false,
      "stateMutability": "view",
      "type": "function"
    },
    {
      "constant": false,
      "inputs": [],
      "name": "donate",
      "outputs": [],
      "payable": true,
      "stateMutability": "payable",
      "type": "function"
    },
    {
      "constant": false,
      "inputs": [],
      "name": "nextPhase",
      "outputs": [],
      "payable": false,
      "stateMutability": "nonpayable",
      "type": "function"
    },
    {
      "constant": false,
      "inputs": [
        {
          "internalType": "bytes32",
          "name": "encodedAmount",
          "type": "bytes32"
        }
      ],
      "name": "propose",
      "outputs": [],
      "payable": true,
      "stateMutability": "payable",
      "type": "function"
    },
    {
      "constant": false,
      "inputs": [
        {
          "internalType": "uint256",
          "name": "proposedRate",
          "type": "uint256"
        },
        {
          "internalType": "bytes32",
          "name": "secret",
          "type": "bytes32"
        }
      ],
      "name": "buy",
      "outputs": [],
      "payable": false,
      "stateMutability": "nonpayable",
      "type": "function"
    },
    {
      "constant": false,
      "inputs": [],
      "name": "getReturns",
      "outputs": [],
      "payable": false,
      "stateMutability": "nonpayable",
      "type": "function"
    },
    {
      "constant": false,
      "inputs": [],
      "name": "finishSale",
      "outputs": [],
      "payable": false,
      "stateMutability": "nonpayable",
      "type": "function"
    },
    {
      "constant": false,
      "inputs": [],
      "name": "getSaleDetails",
      "outputs": [],
      "payable": false,
      "stateMutability": "nonpayable",
      "type": "function"
    }
  ],
  "bytecode": "0x608060405260006002556000600360006101000a81548160ff0219169083600381111561002857fe5b021790555034801561003957600080fd5b50336000806101000a81548173ffffffffffffffffffffffffffffffffffffffff021916908373ffffffffffffffffffffffffffffffffffffffff1602179055507f3449aab2f06a77c1d6760f0f943ccb7db05bd3f47be24b9c142ed77fb1ed561060405160405180910390a161113a806100b56000396000f3fe6080604052600436106100915760003560e01c8063ade58ccb11610059578063ade58ccb146101a7578063c19d93fb146101be578063d0b5235c146101f7578063e9fca2831461020e578063ed88c68e1461025357610091565b80633474a4a6146100965780633eadb6db146100f457806366d003ac1461010b5780638f86f5ea1461016257806399882cdb14610179575b600080fd5b3480156100a257600080fd5b506100ab61025d565b604051808373ffffffffffffffffffffffffffffffffffffffff1673ffffffffffffffffffffffffffffffffffffffff1681526020018281526020019250505060405180910390f35b34801561010057600080fd5b5061010961028f565b005b34801561011757600080fd5b506101206104e9565b604051808273ffffffffffffffffffffffffffffffffffffffff1673ffffffffffffffffffffffffffffffffffffffff16815260200191505060405180910390f35b34801561016e57600080fd5b5061017761050e565b005b6101a56004803603602081101561018f57600080fd5b81019080803590602001909291905050506106d5565b005b3480156101b357600080fd5b506101bc6108df565b005b3480156101ca57600080fd5b506101d3610b2f565b604051808260038111156101e357fe5b60ff16815260200191505060405180910390f35b34801561020357600080fd5b5061020c610b42565b005b34801561021a57600080fd5b506102516004803603604081101561023157600080fd5b810190808035906020019092919080359060200190929190505050610bd3565b005b61025b610e08565b005b60048060000160009054906101000a900473ffffffffffffffffffffffffffffffffffffffff16908060010154905082565b6000809054906101000a900473ffffffffffffffffffffffffffffffffffffffff1673ffffffffffffffffffffffffffffffffffffffff163373ffffffffffffffffffffffffffffffffffffffff1614610334576040517f08c379a000000000000000000000000000000000000000000000000000000000815260040180806020018281038252602a8152602001806110dc602a913960400191505060405180910390fd5b60038081111561034057fe5b600360009054906101000a900460ff16600381111561035b57fe5b141561038a576000600360006101000a81548160ff0219169083600381111561038057fe5b02179055506103d6565b6001600360009054906101000a900460ff1660038111156103a757fe5b0160038111156103b357fe5b600360006101000a81548160ff021916908360038111156103d057fe5b02179055505b600060038111156103e357fe5b600360009054906101000a900460ff1660038111156103fe57fe5b1415610431577f3449aab2f06a77c1d6760f0f943ccb7db05bd3f47be24b9c142ed77fb1ed561060405160405180910390a15b6001600381111561043e57fe5b600360009054906101000a900460ff16600381111561045957fe5b141561048c577fe02916371debfb4cc80ff3f510aca0c2d89cd176ddc084dc5692b301f711dd2e60405160405180910390a15b6002600381111561049957fe5b600360009054906101000a900460ff1660038111156104b457fe5b14156104e7577fa232390656fdebdb602698c8f12256d5e0135781f5e1c1c60cfeeaa447c3d90460405160405180910390a15b565b6000809054906101000a900473ffffffffffffffffffffffffffffffffffffffff1681565b60038060009054906101000a900460ff16600381111561052a57fe5b81600381111561053657fe5b146105a9576040517f08c379a000000000000000000000000000000000000000000000000000000000815260040180806020018281038252601c8152602001807f496e76616c696420706861736520666f722074686520616374696f6e0000000081525060200191505060405180910390fd5b6000809054906101000a900473ffffffffffffffffffffffffffffffffffffffff1673ffffffffffffffffffffffffffffffffffffffff166108fc6002549081150290604051600060405180830381858888f19350505050158015610612573d6000803e3d6000fd5b50670de0b6b3a76400006002548161062657fe5b046002819055506040518060400160405280600160009054906101000a900473ffffffffffffffffffffffffffffffffffffffff1673ffffffffffffffffffffffffffffffffffffffff168152602001600254815250600460008201518160000160006101000a81548173ffffffffffffffffffffffffffffffffffffffff021916908373ffffffffffffffffffffffffffffffffffffffff1602179055506020820151816001015590505050565b6001600360009054906101000a900460ff1660038111156106f257fe5b8160038111156106fe57fe5b14610771576040517f08c379a000000000000000000000000000000000000000000000000000000000815260040180806020018281038252601c8152602001807f496e76616c696420706861736520666f722074686520616374696f6e0000000081525060200191505060405180910390fd5b6000809054906101000a900473ffffffffffffffffffffffffffffffffffffffff1673ffffffffffffffffffffffffffffffffffffffff163373ffffffffffffffffffffffffffffffffffffffff161415610817576040517f08c379a00000000000000000000000000000000000000000000000000000000081526004018080602001828103825260248152602001806110856024913960400191505060405180910390fd5b60003411610870576040517f08c379a00000000000000000000000000000000000000000000000000000000081526004018080602001828103825260338152602001806110a96033913960400191505060405180910390fd5b604051806040016040528083815260200134815250600660003373ffffffffffffffffffffffffffffffffffffffff1673ffffffffffffffffffffffffffffffffffffffff16815260200190815260200160002060008201518160000155602082015181600101559050505050565b60038060009054906101000a900460ff1660038111156108fb57fe5b81600381111561090757fe5b1461097a576040517f08c379a000000000000000000000000000000000000000000000000000000000815260040180806020018281038252601c8152602001807f496e76616c696420706861736520666f722074686520616374696f6e0000000081525060200191505060405180910390fd5b6000809054906101000a900473ffffffffffffffffffffffffffffffffffffffff1673ffffffffffffffffffffffffffffffffffffffff163373ffffffffffffffffffffffffffffffffffffffff161415610a20576040517f08c379a00000000000000000000000000000000000000000000000000000000081526004018080602001828103825260248152602001806110856024913960400191505060405180910390fd5b6000600760003373ffffffffffffffffffffffffffffffffffffffff1673ffffffffffffffffffffffffffffffffffffffff1681526020019081526020016000205490506000811115610afe576000600760003373ffffffffffffffffffffffffffffffffffffffff1673ffffffffffffffffffffffffffffffffffffffff168152602001908152602001600020819055503373ffffffffffffffffffffffffffffffffffffffff166108fc829081150290604051600060405180830381858888f19350505050158015610af8573d6000803e3d6000fd5b50610b2b565b7f669567ea45849e2be6dd4df6e83e9e07b5ea429935d0a5a24f25812fa72480b460405160405180910390a15b5050565b600360009054906101000a900460ff1681565b7f349f939aaa1895cee67485b264474f0d2a1aac01083917b8ea9f96e4036cbb27600160009054906101000a900473ffffffffffffffffffffffffffffffffffffffff16600254604051808373ffffffffffffffffffffffffffffffffffffffff1673ffffffffffffffffffffffffffffffffffffffff1681526020018281526020019250505060405180910390a1565b6002600360009054906101000a900460ff166003811115610bf057fe5b816003811115610bfc57fe5b14610c6f576040517f08c379a000000000000000000000000000000000000000000000000000000000815260040180806020018281038252601c8152602001807f496e76616c696420706861736520666f722074686520616374696f6e0000000081525060200191505060405180910390fd5b6000809054906101000a900473ffffffffffffffffffffffffffffffffffffffff1673ffffffffffffffffffffffffffffffffffffffff163373ffffffffffffffffffffffffffffffffffffffff161415610d15576040517f08c379a00000000000000000000000000000000000000000000000000000000081526004018080602001828103825260248152602001806110856024913960400191505060405180910390fd5b60008090506000600660003373ffffffffffffffffffffffffffffffffffffffff1673ffffffffffffffffffffffffffffffffffffffff1681526020019081526020016000209050610d678585610f18565b81600001541415610dae57670de0b6b3a76400008502945080600101548201915084816001015410158015610da25750610da13386610f56565b5b15610dad5784820391505b5b3373ffffffffffffffffffffffffffffffffffffffff166108fc839081150290604051600060405180830381858888f19350505050158015610df4573d6000803e3d6000fd5b506000801b81600001819055505050505050565b6000809054906101000a900473ffffffffffffffffffffffffffffffffffffffff1673ffffffffffffffffffffffffffffffffffffffff163373ffffffffffffffffffffffffffffffffffffffff161415610eae576040517f08c379a00000000000000000000000000000000000000000000000000000000081526004018080602001828103825260248152602001806110856024913960400191505060405180910390fd5b6000809054906101000a900473ffffffffffffffffffffffffffffffffffffffff1673ffffffffffffffffffffffffffffffffffffffff166108fc349081150290604051600060405180830381858888f19350505050158015610f15573d6000803e3d6000fd5b50565b600080838360405160200180838152602001828152602001925050506040516020818303038152906040528051906020012090508091505092915050565b60006002548211610f6a576000905061107e565b8273ffffffffffffffffffffffffffffffffffffffff16600160009054906101000a900473ffffffffffffffffffffffffffffffffffffffff1673ffffffffffffffffffffffffffffffffffffffff16146110315760025460076000600160009054906101000a900473ffffffffffffffffffffffffffffffffffffffff1673ffffffffffffffffffffffffffffffffffffffff1673ffffffffffffffffffffffffffffffffffffffff168152602001908152602001600020600082825401925050819055505b8160028190555082600160006101000a81548173ffffffffffffffffffffffffffffffffffffffff021916908373ffffffffffffffffffffffffffffffffffffffff160217905550600190505b9291505056fe4f6e6c7920627579657273206d75737420706572666f726d207468697320616374696f6e4465706f73697420616d6f756e74206d7573742062652067726561746572207468616e2070726f706f73616c20616d6f756e744f6e6c792074686520726563697069656e742063616e20706572666f726d207468697320616374696f6ea265627a7a723158209357b77e5d044c154a34748858f0e081350cdf94c29289b7dfe060b9e948abc664736f6c63430005100032",
  "source": "pragma solidity >=0.4.22 <=0.6.0;\n\ncontract DirectFund {\n    \n    struct Propose {\n        bytes32 proposal;\n        uint amount;\n    }\n    \n    struct buyerDetails {\n        address buyer;\n        uint boughtPrice;\n    }\n    \n    enum Phase {Init, Proposal, Sale, Done}\n\n    address payable public recipient;\n    address finalCustomer;\n    \n    uint finalSellingPrice = 0;\n    Phase public state = Phase.Init;\n    buyerDetails public saleDetails;\n    \n    mapping(address => Propose) allProposals;\n    mapping(address => uint) returnAmount;\n\n\n    // Events\n    event SaleEnded(address finalBuyer, uint finalCost);\n    event ProposalPhaseStarted();\n    event BuyPhaseStarted();\n    event SaleInit();\n    event ZeroBalance();\n    \n    // modifier to check if recipient\n    modifier onlyRecipient(){\n        require (msg.sender == recipient, \"Only the recipient can perform this action\");\n        _;\n    }\n    \n    // modifier to check if phase is valid\n    modifier checkPhase(Phase ph){\n        require (ph == state, \"Invalid phase for the action\");\n        _;\n    }\n    \n    // modifier to check if the user is not the recipient\n    modifier notRecipient(){\n        require (msg.sender != recipient, \"Only buyers must perform this action\");\n        _;\n    }\n    \n    constructor() public {\n        recipient = msg.sender;\n        emit SaleInit();\n    }\n    \n    // function to make a donation\n    function donate() public payable notRecipient{\n        // donationAmt = donationAmt*1000000000000000000; // making all transactions in ether\n        // uint donationBalance = 0;\n        recipient.transfer(msg.value);\n        // donationBalance = msg.value - donationAmt;\n        // msg.sender.transfer(donationBalance);\n    }\n    \n    // function to change the phase\n    function nextPhase() public onlyRecipient{\n        if (state == Phase.Done){\n            state = Phase.Init;\n        }else{\n            state = Phase(uint(state)+1);\n        }\n        // state = Phase(uint(state)+1);\n        if (state == Phase.Init) emit SaleInit();\n        if (state == Phase.Proposal) emit ProposalPhaseStarted();\n        if (state == Phase.Sale) emit BuyPhaseStarted();\n    }\n    \n    // function to send proposal to the recipient (who is the seller here)\n    function propose(bytes32 encodedAmount) public payable checkPhase(Phase.Proposal) notRecipient{\n        require(msg.value > 0,\"Deposit amount must be greater than proposal amount\");\n        allProposals[msg.sender] = Propose({\n            proposal: encodedAmount,\n            amount: msg.value\n        });\n    }\n    \n    // funtion to finalise the sale.\n    function buy(uint proposedRate, bytes32 secret) public checkPhase(Phase.Sale) notRecipient{\n        uint saleBalance = 0;\n        Propose storage checkProp = allProposals[msg.sender];\n        // check if the proposal is right one\n        if (checkProp.proposal == computeKeccak(proposedRate,secret)){\n            proposedRate = proposedRate*1000000000000000000; // making all transactions in ether\n            saleBalance += checkProp.amount;  // has the proposed value as well as msg.value \n            if ((checkProp.amount >= proposedRate) && (checkMaxSale(msg.sender, proposedRate)))\n                saleBalance -= proposedRate;\n        }\n        msg.sender.transfer(saleBalance);\n        checkProp.proposal = bytes32(0);\n    }\n    \n    // encoding the proposed value\n    function computeKeccak(uint propValue, bytes32 secret) internal returns(bytes32) {\n        bytes32 x = keccak256(abi.encodePacked(propValue,secret));\n        return x;\n    }\n    \n    // to check for the highest rate proposed\n    function checkMaxSale(address buyer, uint propValue) internal returns (bool status) {\n        if (propValue <= finalSellingPrice) return false;\n        if (finalCustomer != buyer) returnAmount[finalCustomer] += finalSellingPrice;\n        finalSellingPrice = propValue;\n        finalCustomer = buyer;\n        return true;\n    }\n    \n    // return the amount to the buyers who didn't get the item\n    function getReturns() public checkPhase(Phase.Done) notRecipient{\n        uint saleReturns = returnAmount[msg.sender];\n        if (saleReturns > 0){\n            returnAmount[msg.sender] = 0;\n            msg.sender.transfer(saleReturns);\n        }else{\n            emit ZeroBalance();\n        }\n    }\n    \n    // end the sale and transfer balance to the recipient\n    function finishSale() public checkPhase(Phase.Done){\n        recipient.transfer(finalSellingPrice);\n        finalSellingPrice = finalSellingPrice/1000000000000000000;\n        saleDetails = buyerDetails({\n            buyer:finalCustomer,\n            boughtPrice:finalSellingPrice\n        });\n        // emit SaleEnded(finalCustomer,finalSellingPrice);\n    }\n    \n    function getSaleDetails() public {\n        emit SaleEnded(finalCustomer,finalSellingPrice);\n    }\n}\n\n/* Please use these for dry run or generate your own values\n\nPassword\n0x4265260000000000000000000000000000000000000000000000000000000000\n\nbid 1:\n20\n0xf33027072471274d489ff841d4ea9e7e959a95c4d57d5f4f9c8541d474cb817a\n\nbid 2:\n30\n0xfaa88b88830698a2f37dd0fa4acbc258e126bc785f1407ba9824f408a905d784\n\nDeposit:\n50\n\n\n*/",
  "sourcePath": "/Users/sufiyankhan/Documents/Repos/DirectFund/directFund-contract/contracts/DirectFund.sol",
  "compiler": {
    "name": "solc",
    "version": "0.5.16+commit.9c3226ce.Emscripten.clang"
  },
  "schemaVersion": "3.2.5",
  "updatedAt": "2020-11-24T00:51:03.448Z",
  "networkType": "ethereum",
  "devdoc": {
    "methods": {}
  },
  "userdoc": {
    "methods": {}
  }
}